{
  "_format": "hh-sol-artifact-1",
  "contractName": "SimpleMarketplace",
  "sourceName": "contracts/SimpleMarketPlace.sol",
  "abi": [
    {
      "inputs": [
        {
          "internalType": "string",
          "name": "description",
          "type": "string"
        },
        {
          "internalType": "int256",
          "name": "price",
          "type": "int256"
        }
      ],
      "stateMutability": "nonpayable",
      "type": "constructor"
    },
    {
      "inputs": [],
      "name": "AcceptOffer",
      "outputs": [],
      "stateMutability": "nonpayable",
      "type": "function"
    },
    {
      "inputs": [],
      "name": "AskingPrice",
      "outputs": [
        {
          "internalType": "int256",
          "name": "",
          "type": "int256"
        }
      ],
      "stateMutability": "view",
      "type": "function"
    },
    {
      "inputs": [],
      "name": "Description",
      "outputs": [
        {
          "internalType": "string",
          "name": "",
          "type": "string"
        }
      ],
      "stateMutability": "view",
      "type": "function"
    },
    {
      "inputs": [],
      "name": "InstanceBuyer",
      "outputs": [
        {
          "internalType": "address",
          "name": "",
          "type": "address"
        }
      ],
      "stateMutability": "view",
      "type": "function"
    },
    {
      "inputs": [],
      "name": "InstanceOwner",
      "outputs": [
        {
          "internalType": "address",
          "name": "",
          "type": "address"
        }
      ],
      "stateMutability": "view",
      "type": "function"
    },
    {
      "inputs": [
        {
          "internalType": "int256",
          "name": "offerPrice",
          "type": "int256"
        }
      ],
      "name": "MakeOffer",
      "outputs": [],
      "stateMutability": "nonpayable",
      "type": "function"
    },
    {
      "inputs": [],
      "name": "OfferPrice",
      "outputs": [
        {
          "internalType": "int256",
          "name": "",
          "type": "int256"
        }
      ],
      "stateMutability": "view",
      "type": "function"
    },
    {
      "inputs": [],
      "name": "Reject",
      "outputs": [],
      "stateMutability": "nonpayable",
      "type": "function"
    },
    {
      "inputs": [],
      "name": "State",
      "outputs": [
        {
          "internalType": "enum SimpleMarketplace.StateType",
          "name": "",
          "type": "uint8"
        }
      ],
      "stateMutability": "view",
      "type": "function"
    }
  ],
  "bytecode": "0x608060405234801561001057600080fd5b5060405161080f38038061080f8339818101604052604081101561003357600080fd5b810190808051604051939291908464010000000082111561005357600080fd5b8382019150602082018581111561006957600080fd5b825186600182028301116401000000008211171561008657600080fd5b8083526020830192505050908051906020019080838360005b838110156100ba57808201518184015260208101905061009f565b50505050905090810190601f1680156100e75780820380516001836020036101000a031916815260200191505b5060405260200180519060200190929190505050336000806101000a81548173ffffffffffffffffffffffffffffffffffffffff021916908373ffffffffffffffffffffffffffffffffffffffff160217905550806002819055508160019080519060200190610158929190610184565b506000600360006101000a81548160ff0219169083600281111561017857fe5b02179055505050610221565b828054600181600116156101000203166002900490600052602060002090601f016020900481019282601f106101c557805160ff19168380011785556101f3565b828001600101855582156101f3579182015b828111156101f25782518255916020019190600101906101d7565b5b5090506102009190610204565b5090565b5b8082111561021d576000816000905550600101610205565b5090565b6105df806102306000396000f3fe608060405234801561001057600080fd5b50600436106100935760003560e01c8063b7303ba111610066578063b7303ba11461019b578063cba59827146101cf578063d12cd942146101d9578063ec69f29f146101e3578063f1b6dccd1461020157610093565b806317200b6c1461009857806353070152146100cc5780638191745f146100ea57806385b44a261461016d575b600080fd5b6100a061022a565b604051808273ffffffffffffffffffffffffffffffffffffffff16815260200191505060405180910390f35b6100d461024e565b6040518082815260200191505060405180910390f35b6100f2610254565b6040518080602001828103825283818151815260200191508051906020019080838360005b83811015610132578082015181840152602081019050610117565b50505050905090810190601f16801561015f5780820380516001836020036101000a031916815260200191505b509250505060405180910390f35b6101996004803603602081101561018357600080fd5b81019080803590602001909291905050506102f2565b005b6101a36103fa565b604051808273ffffffffffffffffffffffffffffffffffffffff16815260200191505060405180910390f35b6101d7610420565b005b6101e1610512565b005b6101eb610590565b6040518082815260200191505060405180910390f35b610209610596565b6040518082600281111561021957fe5b815260200191505060405180910390f35b60008054906101000a900473ffffffffffffffffffffffffffffffffffffffff1681565b60045481565b60018054600181600116156101000203166002900480601f0160208091040260200160405190810160405280929190818152602001828054600181600116156101000203166002900480156102ea5780601f106102bf576101008083540402835291602001916102ea565b820191906000526020600020905b8154815290600101906020018083116102cd57829003601f168201915b505050505081565b600081141561030057600080fd5b6000600281111561030d57fe5b600360009054906101000a900460ff16600281111561032857fe5b1461033257600080fd5b3373ffffffffffffffffffffffffffffffffffffffff1660008054906101000a900473ffffffffffffffffffffffffffffffffffffffff1673ffffffffffffffffffffffffffffffffffffffff16141561038b57600080fd5b33600360016101000a81548173ffffffffffffffffffffffffffffffffffffffff021916908373ffffffffffffffffffffffffffffffffffffffff160217905550806004819055506001600360006101000a81548160ff021916908360028111156103f257fe5b021790555050565b600360019054906101000a900473ffffffffffffffffffffffffffffffffffffffff1681565b6001600281111561042d57fe5b600360009054906101000a900460ff16600281111561044857fe5b1461045257600080fd5b3373ffffffffffffffffffffffffffffffffffffffff1660008054906101000a900473ffffffffffffffffffffffffffffffffffffffff1673ffffffffffffffffffffffffffffffffffffffff16146104aa57600080fd5b6000600360016101000a81548173ffffffffffffffffffffffffffffffffffffffff021916908373ffffffffffffffffffffffffffffffffffffffff1602179055506000600360006101000a81548160ff0219169083600281111561050b57fe5b0217905550565b60008054906101000a900473ffffffffffffffffffffffffffffffffffffffff1673ffffffffffffffffffffffffffffffffffffffff163373ffffffffffffffffffffffffffffffffffffffff161461056a57600080fd5b6002600360006101000a81548160ff0219169083600281111561058957fe5b0217905550565b60025481565b600360009054906101000a900460ff168156fea26469706673582212200edea9fab33366ad17916c9a3b695909f841703a3432e287ad76c9ef0111f80f64736f6c63430007030033",
  "linkReferences": {},
  "deployedLinkReferences": {}
}