{
  "_format": "hh-sol-artifact-1",
  "contractName": "WavePortal",
  "sourceName": "contracts/WavePortal.sol",
  "abi": [
    {
      "inputs": [],
      "stateMutability": "payable",
      "type": "constructor"
    },
    {
      "anonymous": false,
      "inputs": [
        {
          "indexed": true,
          "internalType": "address",
          "name": "from",
          "type": "address"
        },
        {
          "indexed": false,
          "internalType": "uint256",
          "name": "timestamp",
          "type": "uint256"
        },
        {
          "indexed": false,
          "internalType": "string",
          "name": "message",
          "type": "string"
        }
      ],
      "name": "NewWave",
      "type": "event"
    },
    {
      "inputs": [],
      "name": "getAllWaves",
      "outputs": [
        {
          "components": [
            {
              "internalType": "address",
              "name": "waver",
              "type": "address"
            },
            {
              "internalType": "string",
              "name": "message",
              "type": "string"
            },
            {
              "internalType": "uint256",
              "name": "timestamp",
              "type": "uint256"
            }
          ],
          "internalType": "struct WavePortal.Wave[]",
          "name": "",
          "type": "tuple[]"
        }
      ],
      "stateMutability": "view",
      "type": "function"
    },
    {
      "inputs": [],
      "name": "getTotalWaves",
      "outputs": [
        {
          "internalType": "uint256",
          "name": "",
          "type": "uint256"
        }
      ],
      "stateMutability": "view",
      "type": "function"
    },
    {
      "inputs": [
        {
          "internalType": "address",
          "name": "",
          "type": "address"
        }
      ],
      "name": "lastWavedAt",
      "outputs": [
        {
          "internalType": "uint256",
          "name": "",
          "type": "uint256"
        }
      ],
      "stateMutability": "view",
      "type": "function"
    },
    {
      "inputs": [
        {
          "internalType": "string",
          "name": "_message",
          "type": "string"
        }
      ],
      "name": "wave",
      "outputs": [],
      "stateMutability": "nonpayable",
      "type": "function"
    }
  ],
  "bytecode": "0x60806040526200004f6040518060400160405280601981526020017f57652068617665206265656e20636f6e737472756374656421000000000000008152506200007760201b6200062c1760201c565b606444426200005f9190620001c4565b6200006b919062000261565b60018190555062000308565b62000117816040516024016200008e919062000184565b6040516020818303038152906040527f41304fac000000000000000000000000000000000000000000000000000000007bffffffffffffffffffffffffffffffffffffffffffffffffffffffff19166020820180517bffffffffffffffffffffffffffffffffffffffffffffffffffffffff83818316178352505050506200011a60201b60201c565b50565b60008151905060006a636f6e736f6c652e6c6f679050602083016000808483855afa5050505050565b60006200015082620001a8565b6200015c8185620001b3565b93506200016e8185602086016200022b565b6200017981620002f7565b840191505092915050565b60006020820190508181036000830152620001a0818462000143565b905092915050565b600081519050919050565b600082825260208201905092915050565b6000620001d18262000221565b9150620001de8362000221565b9250827fffffffffffffffffffffffffffffffffffffffffffffffffffffffffffffffff0382111562000216576200021562000299565b5b828201905092915050565b6000819050919050565b60005b838110156200024b5780820151818401526020810190506200022e565b838111156200025b576000848401525b50505050565b60006200026e8262000221565b91506200027b8362000221565b9250826200028e576200028d620002c8565b5b828206905092915050565b7f4e487b7100000000000000000000000000000000000000000000000000000000600052601160045260246000fd5b7f4e487b7100000000000000000000000000000000000000000000000000000000600052601260045260246000fd5b6000601f19601f8301169050919050565b6110c980620003186000396000f3fe608060405234801561001057600080fd5b506004361061004c5760003560e01c8063449d46c0146100515780639a2cdc081461006d578063a42a46631461008b578063bd43a908146100bb575b600080fd5b61006b600480360381019061006691906108d3565b6100d9565b005b6100756104ba565b6040516100829190610cf6565b60405180910390f35b6100a560048036038101906100a091906108aa565b6104c3565b6040516100b29190610cf6565b60405180910390f35b6100c36104db565b6040516100d09190610c22565b60405180910390f35b42603c600360003373ffffffffffffffffffffffffffffffffffffffff1673ffffffffffffffffffffffffffffffffffffffff168152602001908152602001600020546101269190610e13565b10610166576040517f08c379a000000000000000000000000000000000000000000000000000000000815260040161015d90610cb6565b60405180910390fd5b42600360003373ffffffffffffffffffffffffffffffffffffffff1673ffffffffffffffffffffffffffffffffffffffff1681526020019081526020016000208190555060016000808282546101bc9190610e13565b925050819055506102026040518060400160405280600d81526020017f2573206861732077617665642100000000000000000000000000000000000000815250336106c5565b600260405180606001604052803373ffffffffffffffffffffffffffffffffffffffff16815260200183815260200142815250908060018154018082558091505060019003906000526020600020906003020160009091909190915060008201518160000160006101000a81548173ffffffffffffffffffffffffffffffffffffffff021916908373ffffffffffffffffffffffffffffffffffffffff16021790555060208201518160010190805190602001906102c192919061078a565b50604082015181600201555050606460015442446102df9190610e13565b6102e99190610e13565b6102f39190610f19565b600181905550603260015411610444576103426040518060400160405280600781526020017f257320776f6e2100000000000000000000000000000000000000000000000000815250336106c5565b600066038d7ea4c68000905047811115610391576040517f08c379a000000000000000000000000000000000000000000000000000000000815260040161038890610cd6565b60405180910390fd5b60003373ffffffffffffffffffffffffffffffffffffffff16826040516103b790610c0d565b60006040518083038185875af1925050503d80600081146103f4576040519150601f19603f3d011682016040523d82523d6000602084013e6103f9565b606091505b505090508061043d576040517f08c379a000000000000000000000000000000000000000000000000000000000815260040161043490610c96565b60405180910390fd5b5050610467565b6104666040518060a001604052806065815260200161102f60659139336106c5565b5b3373ffffffffffffffffffffffffffffffffffffffff167f5f7e16dc676677766a70e9c5628aa6c54ddb8b6e5188e2ae1e1f17f1ffbea71642836040516104af929190610d11565b60405180910390a250565b60008054905090565b60036020528060005260406000206000915090505481565b60606002805480602002602001604051908101604052809291908181526020016000905b8282101561062357838290600052602060002090600302016040518060600160405290816000820160009054906101000a900473ffffffffffffffffffffffffffffffffffffffff1673ffffffffffffffffffffffffffffffffffffffff1673ffffffffffffffffffffffffffffffffffffffff16815260200160018201805461058890610ee7565b80601f01602080910402602001604051908101604052809291908181526020018280546105b490610ee7565b80156106015780601f106105d657610100808354040283529160200191610601565b820191906000526020600020905b8154815290600101906020018083116105e457829003601f168201915b50505050508152602001600282015481525050815260200190600101906104ff565b50505050905090565b6106c2816040516024016106409190610c44565b6040516020818303038152906040527f41304fac000000000000000000000000000000000000000000000000000000007bffffffffffffffffffffffffffffffffffffffffffffffffffffffff19166020820180517bffffffffffffffffffffffffffffffffffffffffffffffffffffffff8381831617835250505050610761565b50565b61075d82826040516024016106db929190610c66565b6040516020818303038152906040527f319af333000000000000000000000000000000000000000000000000000000007bffffffffffffffffffffffffffffffffffffffffffffffffffffffff19166020820180517bffffffffffffffffffffffffffffffffffffffffffffffffffffffff8381831617835250505050610761565b5050565b60008151905060006a636f6e736f6c652e6c6f679050602083016000808483855afa5050505050565b82805461079690610ee7565b90600052602060002090601f0160209004810192826107b857600085556107ff565b82601f106107d157805160ff19168380011785556107ff565b828001600101855582156107ff579182015b828111156107fe5782518255916020019190600101906107e3565b5b50905061080c9190610810565b5090565b5b80821115610829576000816000905550600101610811565b5090565b600061084061083b84610d72565b610d41565b90508281526020810184848401111561085857600080fd5b610863848285610ea5565b509392505050565b60008135905061087a81611017565b92915050565b600082601f83011261089157600080fd5b81356108a184826020860161082d565b91505092915050565b6000602082840312156108bc57600080fd5b60006108ca8482850161086b565b91505092915050565b6000602082840312156108e557600080fd5b600082013567ffffffffffffffff8111156108ff57600080fd5b61090b84828501610880565b91505092915050565b60006109208383610b9f565b905092915050565b61093181610e69565b82525050565b61094081610e69565b82525050565b600061095182610db2565b61095b8185610dd5565b93508360208202850161096d85610da2565b8060005b858110156109a9578484038952815161098a8582610914565b945061099583610dc8565b925060208a01995050600181019050610971565b50829750879550505050505092915050565b60006109c682610dbd565b6109d08185610df1565b93506109e0818560208601610eb4565b6109e981611006565b840191505092915050565b60006109ff82610dbd565b610a098185610e02565b9350610a19818560208601610eb4565b610a2281611006565b840191505092915050565b6000610a3a602783610e02565b91507f4661696c656420746f207769746864726177206d6f6e65792066726f6d20636f60008301527f6e74726163742e000000000000000000000000000000000000000000000000006020830152604082019050919050565b6000610aa0604783610e02565b91507f566f757320646576657a20617474656e647265206175206d6f696e732031206d60008301527f696e757465206176616e7420646520776176657220756e65206e6f7576656c6c60208301527f6520666f69732e000000000000000000000000000000000000000000000000006040830152606082019050919050565b6000610b2c603583610e02565b91507f547279696e6720746f207769746864726177206d6f7265206d6f6e657920746860008301527f616e207468657920636f6e7472616374206861732e00000000000000000000006020830152604082019050919050565b6000610b92600083610de6565b9150600082019050919050565b6000606083016000830151610bb76000860182610928565b5060208301518482036020860152610bcf82826109bb565b9150506040830151610be46040860182610bef565b508091505092915050565b610bf881610e9b565b82525050565b610c0781610e9b565b82525050565b6000610c1882610b85565b9150819050919050565b60006020820190508181036000830152610c3c8184610946565b905092915050565b60006020820190508181036000830152610c5e81846109f4565b905092915050565b60006040820190508181036000830152610c8081856109f4565b9050610c8f6020830184610937565b9392505050565b60006020820190508181036000830152610caf81610a2d565b9050919050565b60006020820190508181036000830152610ccf81610a93565b9050919050565b60006020820190508181036000830152610cef81610b1f565b9050919050565b6000602082019050610d0b6000830184610bfe565b92915050565b6000604082019050610d266000830185610bfe565b8181036020830152610d3881846109f4565b90509392505050565b6000604051905081810181811067ffffffffffffffff82111715610d6857610d67610fd7565b5b8060405250919050565b600067ffffffffffffffff821115610d8d57610d8c610fd7565b5b601f19601f8301169050602081019050919050565b6000819050602082019050919050565b600081519050919050565b600081519050919050565b6000602082019050919050565b600082825260208201905092915050565b600081905092915050565b600082825260208201905092915050565b600082825260208201905092915050565b6000610e1e82610e9b565b9150610e2983610e9b565b9250827fffffffffffffffffffffffffffffffffffffffffffffffffffffffffffffffff03821115610e5e57610e5d610f4a565b5b828201905092915050565b6000610e7482610e7b565b9050919050565b600073ffffffffffffffffffffffffffffffffffffffff82169050919050565b6000819050919050565b82818337600083830152505050565b60005b83811015610ed2578082015181840152602081019050610eb7565b83811115610ee1576000848401525b50505050565b60006002820490506001821680610eff57607f821691505b60208210811415610f1357610f12610fa8565b5b50919050565b6000610f2482610e9b565b9150610f2f83610e9b565b925082610f3f57610f3e610f79565b5b828206905092915050565b7f4e487b7100000000000000000000000000000000000000000000000000000000600052601160045260246000fd5b7f4e487b7100000000000000000000000000000000000000000000000000000000600052601260045260246000fd5b7f4e487b7100000000000000000000000000000000000000000000000000000000600052602260045260246000fd5b7f4e487b7100000000000000000000000000000000000000000000000000000000600052604160045260246000fd5b6000601f19601f8301169050919050565b61102081610e69565b811461102b57600080fd5b5056fe257320646964206e6f742077696e2c2062757420796f752074726965642074686520736d61727420636f6e7472616374202120416e6420796f75276c6c2062652061626c6520746f2074727920616761696e20696e206120666577207365636f6e64732e20a2646970667358221220d3d36f1464a0cc3f6a9ffbfb8ee2bdeee99a7eab7875a47aa3c4379f88b6716d64736f6c63430008000033",
  "linkReferences": {},
  "deployedLinkReferences": {}
}